:100000000C9434000C943E000C943E000C943E0082
:100010000C943E000C943E000C943E000C943E0068
:100020000C943E000C943E000C943E000C943E0058
:100030000C943E000C943E000C943E000C943E0048
:100040000C943E000C943E000C943E000C943E0038
:100050000C943E000C943E000C943E000C943E0028
:100060000C943E000C943E0011241FBECFEFD8E04C
:10007000DEBFCDBF0E9440000C9480000C940000B5
:10008000CF93DF93209A87E690E00E946600C0E954
:10009000D1E00E9471008134E1F7289A20E030E03D
:1000A000CE010197F1F72F5F3F4F87E0203D3807E2
:1000B000B9F7289820E030E0CE010197F1F72F5FE3
:1000C0003F4F87E0203D3807B9F7E3CF8093C40066
:1000D0009093C50086E48093C20088ED8093C100B0
:1000E00008958091C00087FFFCCF8091C6000895DD
:1000F000982F8091C00085FFFCCF9093C600089593
:04010000F894FFCFA1
:00000001FF
