:100000000C9434000C943E000C943E000C943E0082
:100010000C943E000C943E000C943E000C943E0068
:100020000C943E000C943E000C943E000C943E0058
:100030000C943E000C943E000C943E000C943E0048
:100040000C943E000C943E000C943E000C943E0038
:100050000C943E000C943E000C943E000C943E0028
:100060000C943E000C943E0011241FBECFEFD8E04C
:10007000DEBFCDBF0E9440000C94BB000C9400007A
:10008000EF92FF920F931F93CF93DF9380918000A5
:10009000836880938000809181008B6080938100D1
:1000A000219A64E670E040E951E0E0E9F1E0AAEF6E
:1000B000B0E0CAE8D2E004E813E0E12C84E0F82ED6
:1000C000709389006093880020E030E0CA010197B6
:1000D000F1F72F5F3F4F87E0203D3807B9F7B09326
:1000E0008900A093880020E030E0CA010197F1F771
:1000F0002F5F3F4F87E0203D3807B9F7F093890025
:10010000E093880020E030E0CA010197F1F72F5F0B
:100110003F4F87E0203D3807B9F7D0938900C0935F
:10012000880020E030E0CA010197F1F72F5F3F4FD0
:1001300087E0203D3807B9F71093890000938800C5
:1001400020E030E0CA010197F1F72F5F3F4F87E0D1
:10015000203D3807B9F7F0928900E092880020E04E
:1001600030E0CA010197F1F72F5F3F4F87E0203D54
:0A0170003807B9F7A5CFF894FFCFC8
:00000001FF
