:100000000C9434000C9468000C9446000C94460048
:100010000C9446000C9446000C9446000C94460048
:100020000C9446000C9446000C9446000C94460038
:100030000C9446000C9446000C9446000C94460028
:100040000C9446000C9446000C9446000C94460018
:100050000C9446000C9446000C9446000C94460008
:100060000C9446000C94460011241FBECFEFD8E03C
:10007000DEBFCDBF11E0A0E0B1E001C01D92A23013
:10008000B107E1F70E947C000C94B5000C940000CD
:1000900080E480937C0087E880937A0008958091C3
:1000A0007C00887F80937C0080917A0080648093BC
:1000B0007A0080917A0084FFFCCF80917A00806181
:1000C00080937A002091780030917900C9010895D9
:1000D0001F920F920FB60F9211248F939F9381E07E
:1000E00090E090930101809300019F918F910F9078
:1000F0000FBE0F901F9018950E94A90040E951E093
:100100008091000190910101019791F0289820E0E1
:1001100030E0CA010197F1F72F5F3F4F87E22031AE
:100120003807B9F78091000190910101019771F7AB
:10013000289A20E030E0CA010197F1F72F5F3F4F86
:1001400087E220313807B9F71092010110920001BF
:10015000D7CF209A529884E08BB9E9E6F0E080810D
:0E016000816080837894E89A0895F894FFCF28
:00000001FF
